S01F000041546D65676131365F554152545F52585F53696D706C652E7372656302
S11300000C942A000C943C000C943C000C943C008E
S11300100C943C000C943C000C943C000C943C006C
S11300200C943C000C943C000C943C000C946C002C
S11300300C943C000C943C000C943C000C943C004C
S11300400C943C000C943C000C943C000C943C003C
S11300500C943C0011241FBECFE5D4E0DEBFCDBF1D
S113006020E0A0E6B0E001C01D92A136B207E1F79E
S11300700E947B000C94B5000C9400002AB1206906
S11300802AB920B5266820BDDC01CB01880F991F51
S1130090AA1FBB1F880F991FAA1FBB1F9C01AD017C
S11300A0220F331F441F551F220F331F441F551F98
S11300B060E072E18AE790E00E9493008FEF820F84
S11300C089B9DA01C9010197A109B109892F9A2FC8
S11300D0AB2FBB2780BD08951F920F920FB60F92CE
S11300E011248F938CB1809360008F910F900FBE79
S11300F00F901F90189560E875E280E090E00E94F0
S11301003E0078948FEF87BB80916000813619F4AC
S113011088B3816088BB809160008236A9F788B378
S11301208E7F88BBF1CFA1E21A2EAA1BBB1BFD0157
S11301300DC0AA1FBB1FEE1FFF1FA217B307E407C2
S1130140F50720F0A21BB30BE40BF50B661F771F1A
S1130150881F991F1A9469F76095709580959095FA
S11101609B01AC01BD01CF010895F894FFCFBF
S9030000FC
