S023000041546D65676131365F45787465726E616C5F496E746572727570742E737265639D
S11300000C942A000C9441000C9450000C9434007D
S11300100C9434000C9434000C9434000C9434008C
S11300200C9434000C9434000C9434000C9434007C
S11300300C9434000C9434000C9434000C9434006C
S11300400C9434000C9434000C9434000C9434005C
S11300500C94340011241FBECFE5D4E0DEBFCDBF25
S11300600E9436000C945F000C94000087B38160FA
S113007087BB78948BB7806C8BBF85B78F6085BF47
S1130080FFCF1F920F920FB60F9211248F9388B354
S1130090816088BB8F910F900FBE0F901F901895B1
S11300A01F920F920FB60F9211248F9388B38E7FF5
S11300B088BB8F910F900FBE0F901F901895F894E6
S10500C0FFCF6C
S9030000FC
