:100000000C942A000C9434000C9434000C943400AA
:100010000C9434000C9434000C9434000C94340090
:100020000C9434000C9434000C9434000C94340080
:100030000C9434000C9434000C945D000C94340047
:100040000C9434000C9434000C9434000C94340060
:100050000C94340011241FBECFE5D4E0DEBFCDBF29
:100060000E9436000C946F000C940000789417B82E
:1000700086B1806A86B986B1846086B986B18C7F84
:1000800086B986B1806486B98FB583608FBD8EB521
:1000900088608EBD8EB58F7E8EBD8FB58F7B8FBDF8
:1000A0008FB580688FBD8EB583608EBD8EB58B7F1A
:1000B0008EBD81B3806281BBFFCF1F920F920FB6BE
:1000C0000F9211248F939F9384B195B19BBD8ABDEC
:1000D0009F918F910F900FBE0F901F901895F894DD
:0200E000FFCF50
:00000001FF
