:100000000C946B000C9488000C9488000C9488006D
:100010000C9488000C9488000C9488000C94880040
:100020000C9488000C9488000C9488000C94880030
:100030000C9488000C9488000C9488000C94880020
:100040000C9488000C9488000C9488000C94880010
:100050000C94880007634236B79BD8A71A396856B4
:1000600018AEBAAB558C1D3CB7CC5763BD6DEDFDDA
:10007000753EF6177231BF000000803F0800000097
:10008000BE922449123EABAAAA2ABECDCCCC4C3E8D
:1000900000000080BEABAAAAAA3E00000000BF007C
:1000A0000000803F0000000000084178D3BB438778
:1000B000D1133D190E3CC3BD4282AD2B3E68EC828C
:1000C00076BED98FE1A93E4C80EFFFBE01C4FF7F11
:1000D0003F000000000011241FBECFE5D4E0DEBFCA
:1000E000CDBF10E0A0E6B0E0ECE2FAE002C005907F
:1000F0000D92AE36B107D9F720E0AEE6B0E001C010
:100100001D92AF36B207E1F70E9442010C9414052C
:100110000C9400008BBB88B38E7F88BB88B38D7F27
:1001200088BB88B3846088BB83EC99E00197F1F7C2
:1001300000C0000088B38B7F88BB08958BBB88B359
:10014000816088BB88B38D7F88BB88B3846088BB9F
:1001500083EC99E00197F1F700C0000088B38B7F32
:1001600088BB0895CF93DF93EC0103C00E949E00EB
:10017000219688818111FACFDF91CF91089588E38C
:100180000E948A0086E00E948A008CE00E948A0019
:1001900081E00E948A00089511B861B162706160C7
:1001A00070E080E090E00E9496029B01AC0160E06C
:1001B00070E080E890E40E9422039B01AC010E9461
:1001C00087019B01AC0160E070E080E892E40E944E
:1001D000F3010E94650260B9089596B7946A96BFCC
:1001E00006B607FEFDCF83B986B7846886BF06B61C
:1001F00007FEFDCF089596B7946A96BF06B607FE30
:10020000FDCF83B986B7846886BF06B607FEFDCFEB
:10021000089586B7846986BF06B607FEFDCF0895A8
:1002200084E886BF06B607FEFDCF83B10895CF935D
:10023000C82F82958F7080630E949E008C2F8F70D4
:1002400080630E949E00CF9108959DEC899F912D1F
:100250001124969596959695392F330F232F220FBB
:10026000220F230F821B30E1939F800D11240895EC
:100270000E94250183B986B7846886BF06B607FE4B
:10028000FDCF089578949FEF9ABB87B3876087BBB3
:1002900014BA95BB0E94BF0080E80E948A0080E6E5
:1002A00090E00E94B2000E94CC0080EA0E94ED0023
:1002B00080E20E9438018DE20E94380182E60E94AD
:1002C00038010E9409012FE38DE093E02150804026
:1002D0009040E1F700C0000080EA0E94ED0080E25B
:1002E0000E9438018DE20E94380181EA0E94FB00E1
:1002F0000E94100180936E000E94090180EC0E9410
:100300008A0080916E000E941701FFCF5058BB27D2
:10031000AA270E949E010C94E8020E94DA0238F09B
:100320000E94E10220F039F49F3F19F426F40C9466
:10033000D7020EF4E095E7FB0C94D102E92F0E945E
:10034000F90258F3BA17620773078407950720F07C
:1003500079F4A6F50C941B030EF4E0950B2EBA2F3E
:10036000A02D0B01B90190010C01CA01A0011124BB
:10037000FF27591B99F0593F50F4503E68F11A1667
:10038000F040A22F232F342F4427585FF3CF4695F8
:1003900037952795A795F0405395C9F77EF41F161A
:1003A000BA0B620B730B840BBAF09150A1F0FF0FE4
:1003B000BB1F661F771F881FC2F70EC0BA0F621FD0
:1003C000731F841F48F4879577956795B795F795C0
:1003D0009E3F08F0B0CF9395880F08F09927EE0F55
:1003E0009795879508950E9407020C94E8020E9451
:1003F000E10258F00E94DA0240F029F45F3F29F050
:100400000C94D10251110C941C030C94D7020E943D
:10041000F90268F39923B1F3552391F3951B550B1A
:10042000BB27AA2762177307840738F09F5F5F4FC7
:10043000220F331F441FAA1FA9F335D00E2E3AF006
:10044000E0E832D091505040E695001CCAF72BD01E
:10045000FE2F29D0660F771F881FBB1F261737076F
:100460004807AB07B0E809F0BB0B802DBF01FF27A1
:1004700093585F4F3AF09E3F510578F00C94D102AB
:100480000C941C035F3FE4F3983ED4F38695779574
:100490006795B795F7959F5FC9F7880F911D96955A
:1004A000879597F90895E1E0660F771F881FBB1FB6
:1004B000621773078407BA0720F0621B730B840B63
:1004C000BA0BEE1F88F7E09508950E94010388F0AB
:1004D0009F5798F0B92F9927B751B0F0E1F0660F08
:1004E000771F881F991F1AF0BA95C9F714C0B13049
:1004F00091F00E941B03B1E008950C941B03672F39
:10050000782F8827B85F39F0B93FCCF38695779577
:100510006795B395D9F73EF4909580957095619560
:100520007F4F8F4F9F4F0895E89409C097FB3EF48B
:1005300090958095709561957F4F8F4F9F4F992330
:10054000A9F0F92F96E9BB279395F69587957795AE
:100550006795B795F111F8CFFAF4BB0F11F460FF6E
:100560001BC06F5F7F4F8F4F9F4F16C0882311F0C6
:1005700096E911C0772321F09EE8872F762F05C0DA
:10058000662371F096E8862F70E060E02AF09A9575
:10059000660F771F881FDAF7880F9695879597F96A
:1005A000089597F99F6780E870E060E008959FEFF5
:1005B00080EC089500240A941616170618060906FA
:1005C000089500240A9412161306140605060895C9
:1005D000092E0394000C11F4882352F0BB0F40F451
:1005E000BF2B11F460FF04C06F5F7F4F8F4F9F4F91
:1005F000089557FD9058440F551F59F05F3F71F013
:100600004795880F97FB991F61F09F3F79F0879579
:100610000895121613061406551FF2CF4695F1DF02
:1006200008C0161617061806991FF1CF8695710592
:10063000610508940895E894BB2766277727CB01C6
:1006400097F90895FA01EE0FFF1F30962105310545
:10065000A1F16115710561F48038BFE39B0749F191
:1006600068949038810561F08038BFEF9B0741F0B6
:1006700099234AF5FF3FE1053105210519F1E89479
:100680000894E795D901AA2329F4AB2FBE2FF85F70
:10069000D0F310C0FF5F70F4A695E0F7F73950F083
:1006A00019F0FF3A38F49F779F930DD00F9007FC15
:1006B0009058089546F00C94D70260E070E080E80E
:1006C0009FE308954FE79F775F934F933F932F9357
:1006D0000E941D042F913F914F915F910E949904B8
:1006E0000C947A0329F416F00C94D1020C941B0399
:1006F0000C94D7020E940103A8F39638A0F707F8DC
:100700000F92E8942BE33AEA48EB5FE70E94AF04CC
:100710000F920F920F924DB75EB70F920E94650431
:10072000E4E5F0E00E94AC034F915F91EF91FF91FF
:10073000E595EE1FFF1F49F0FE57E0684427EE0FD6
:10074000441FFA95E1F74195550B0E94DF030F9086
:1007500007FE0C94D3030895DF93CF931F930F9359
:10076000FF92EF92DF927B018C01689406C0DA2E33
:10077000EF010E94AC04FE01E894A591259135910A
:1007800045915591A6F3EF010E949E01FE0197014C
:10079000A801DA9469F7DF90EF90FF900F911F9115
:1007A000CF91DF9108959B01AC0160E070E080E89B
:1007B0009FE30C94F3010C94D1020C9406050E9463
:1007C0000103D8F39923C9F3940F511DA3F391505A
:1007D000504094F059F0882332F0660F771F881F3D
:1007E00091505040C1F79E3F51052CF7880F911D45
:1007F0009695879597F908955F3FACF0983E9CF0E9
:10080000BB27869577956795B79508F4B160939562
:10081000C1F7BB0F58F711F460FFE8CF6F5F7F4F50
:100820008F4F9F4FE3CF0C941C0316F00C940605DA
:100830000C94D70268940C94D1020E940103A8F38F
:100840009923C1F3AEF3DF93CF931F930F93FF92DE
:10085000C92FDD2788232AF02197660F771F881F6D
:10086000DAF720E030E040E85FEB9FE3883920F0E2
:10087000803E38F021968F770E948701ECE7F0E008
:1008800004C00E948701E9EAF0E00E94AC038B01FA
:10089000BE01EC01FB2E6F5771097595771F880B10
:1008A000990B0E94960228E132E741E35FE30E9440
:1008B000AC04AF2D9801AE01FF900F911F91CF9125
:1008C000DF910E949E010C94E802FA01DC01AA0F5C
:1008D000BB1F9B01AC01BF5728F4222733274427B5
:1008E000507820C0B75190F4AB2F0024469537952F
:1008F0002795011CA395D2F3002071F0220F331F1E
:10090000441FB395DAF30ED00C9486016130710563
:10091000A0E88A07B94630F49B01AC016627772727
:1009200088279078309621F0208331834283538347
:1009300008950E94AC040C94E8020E94DA0238F098
:100940000E94E10220F0952311F00C94D1020C9446
:10095000D70211240C941C030E94F90270F3959F96
:10096000C1F3950F50E0551F629FF001729FBB27A6
:10097000F00DB11D639FAA27F00DB11DAA1F649F42
:100980006627B00DA11D661F829F2227B00DA11DF5
:10099000621F739FB00DA11D621F839FA00D611D7B
:1009A000221F749F3327A00D611D231F849F600D9C
:1009B000211D822F762F6A2F11249F5750409AF0C5
:1009C000F1F088234AF0EE0FFF1FBB1F661F771F51
:1009D000881F91505040A9F79E3F510580F00C941C
:1009E000D1020C941C035F3FE4F3983ED4F3869548
:1009F00077956795B795F795E7959F5FC1F7FE2BBC
:100A0000880F911D9695879597F908959F3F31F02E
:100A1000915020F4879577956795B795880F911D2C
:0C0A20009695879597F90895F894FFCFFC
:0E0A2C00454550524F4D2056414C55453A001D
:00000001FF
