S027000041546D65676131365F536576656E5365676D656E745F466F757244696769742E7372656348
S11300000C942A000C943F000C943F000C943F0085
S11300100C943F000C943F000C943F000C943F0060
S11300200C943F000C943F000C943F000C943F0050
S11300300C943F000C943F000C943F000C943F0040
S11300400C943F000C943F000C943F000C943F0030
S11300500C943F0011241FBECFE5D4E0DEBFCDBF1A
S113006010E0A0E6B0E0EAEFF1E002C005900D92E6
S1130070AA36B107D9F70E94C9000C94FB000C946E
S113008000004F925F926F927F928F929F92AF92F5
S1130090BF92CF92DF92EF92FF92CF932B013C015C
S11300A0C0E066C0C301B20128EE33E040E050E096
S11300B00E94D9000F2EFAE0CF2ED12CE12CF12C86
S11300C0F02DCA01B901A70196010E94D9002EEFB3
S11300D02BBBFB01E05AFF4F808188BB89EF90E086
S11300E00197F1F700C00000C301B20124E630E03B
S11300F040E050E00E94D900CA01B901A70196016D
S11301000E94D9002DEF2BBBFB01E05AFF4F8081E9
S113011088BB89EF90E00197F1F700C00000C301AC
S1130120B201A70196010E94D9004B015C01CA01EA
S1130130B901A70196010E94D9002BEF2BBBFB014B
S1130140E05AFF4F808188BB89EF90E00197F1F777
S113015000C0000087EF8BBBF401E05AFF4F8081A1
S113016088BB89EF90E00197F1F700C00000CF5FF2
S1130170C53608F497CFCF91FF90EF90DF90CF90E2
S1130180BF90AF909F908F907F906F905F904F90B3
S113019008958FEF8ABB87BB62ED74E080E090E046
S11301A00E94410083EC99E00197F1F700C0000040
S11301B0F3CFA1E21A2EAA1BBB1BFD010DC0AA1F7F
S11301C0BB1FEE1FFF1FA217B307E407F50720F0BC
S11301D0A21BB30BE40BF50B661F771F881F991F37
S11301E01A9469F760957095809590959B01AC0180
S10D01F0BD01CF010895F894FFCF7C
S10D01FA3F065B4F666D7D077F6FC3
S9030000FC
