S024000041546D65676131365F313658325F4C43445F342D4269745F6D6F64652E7372656305
S11300000C942A000C943F000C943F000C943F0085
S11300100C943F000C943F000C943F000C943F0060
S11300200C943F000C943F000C943F000C943F0050
S11300300C943F000C943F000C943F000C943F0040
S11300400C943F000C943F000C943F000C943F0030
S11300500C943F0011241FBECFE5D4E0DEBFCDBF1A
S113006010E0A0E6B0E0E8EBF1E002C005900D92EC
S1130070AC37B107D9F70E94BB000C94DA000C949A
S11300800000982F907F92BB92B39E7F92BB92B355
S11300909D7F92BB92B3946092BBE3ECF9E03197FD
S11300A0F1F700C0000092B39B7F92BBF0E18F9FF9
S11300B0C001112482BB82B38E7F82BB82B38D7F49
S11300C082BB82B3846082BB83EC99E00197F1F731
S11300D000C0000082B38B7F82BB0895982F907F6D
S11300E092BB92B3916092BB92B39D7F92BB92B349
S11300F0946092BBE3ECF9E03197F1F700C00000A3
S113010092B39B7F92BBF0E18F9FC001112482BB0D
S113011082B3816082BB82B38D7F82BB82B38460F1
S113012082BB83EC99E00197F1F700C0000082B331
S11301308B7F82BB0895CF93DF93EC0103C00E94B1
S11301406E00219688818111FACFDF91CF910895B5
S113015083E30E94410082E30E94410088E20E94FE
S1130160410086E00E9441008CE00E94410081E051
S11301700E944100089580EF81BB81B3876081BBF9
S11301800E94A80080E80E94410080E690E00E945E
S11301909B0080EC0E9441008FE690E00E949B004F
S11301A02FE38DE093E0215080409040E1F700C0C0
S10B01B00000E8CFF894FFCF32
S11301B8455A48494C20424841524154484900450F
S10F01C86D626564646564204465760023
S9030000FC
