S019000041546D65676133325F426C696E6B4C65642E7372656313
S11300000C942A000C9434000C9434000C943400A6
S11300100C9434000C9434000C9434000C9434008C
S11300200C9434000C9434000C9434000C9434007C
S11300300C9434000C9434000C9434000C9434006C
S11300400C9434000C9434000C9434000C9434005C
S11300500C94340011241FBECFE5D8E0DEBFCDBF21
S11300600E9436000C9466000C940000CF93DF933A
S113007000D000D0CDB7DEB7EAE1F0E08081816046
S11300808083EBE1F0E080818E7F8083EBE1F0E020
S1130090908181E08927808319821A821B821C82C5
S11300A00BC089819A81AB81BC810196A11DB11DD0
S11300B089839A83AB83BC8389819A81AB81BC8118
S11300C0813A9648A140B10560F3E0CFF894FFCFA0
S9030000FC
