:100000000C942A000C943F000C943F000C943F0089
:100010000C943F000C943F000C943F000C943F0064
:100020000C943F000C943F000C943F000C943F0054
:100030000C943F000C943F000C943F000C943F0044
:100040000C943F000C943F000C943F000C943F0034
:100050000C943F0011241FBECFE5D4E0DEBFCDBF1E
:1000600010E0A0E6B0E0E0EDF1E002C005900D92F6
:10007000A037B107D9F70E9478000C94E6000C94E1
:1000800000008AB38E7F8ABB80E487B987E886B98F
:10009000089587B1807F87B986B1806486B9349B23
:1000A000FECF83E08A95F1F7000085B190E0982FAC
:1000B000882724B1820F911D08958AB188618AB979
:1000C00080B5866880BD83E389B910BC08955D9BC7
:1000D000FECF8CB90895CF93DF93EC0103C00E944B
:1000E0006700219688818111FACFDF91CF91089521
:1000F000CF93DF9300D000D01F92CDB7DEB70E9420
:1001000041000E945D0080E690E00E946B000E942A
:1001100049004AE050E0BE016F5F7F4F0E94A60099
:10012000CE0101960E946B008CE690E00E946B006D
:100130008EE690E00E946B002FE38DE093E021506B
:1001400080409040E1F700C00000E1CF453251050A
:1001500020F4423010F00C94B100FB011082CB016E
:100160000895BB274A3031F4992322F4BDE29095DB
:1001700081959F4F0C94BD00BB27FB015527AA27F3
:10018000880F991FAA1FA41710F0A41B8395505124
:10019000B9F7A05DAA3308F0A95DA193009779F79C
:1001A000B111B1931192CB010C94D600DC01FC018A
:1001B000672F71917723E1F7329704C07C916D939B
:1001C00070836291AE17BF07C8F30895F894FFCF0C
:1001D0000A094144432056616C7565000D000A0010
:00000001FF
