S015000041546D65676131365F375365672E73726563C4
S11300000C942A000C943F000C943F000C943F0085
S11300100C943F000C943F000C943F000C943F0060
S11300200C943F000C943F000C943F000C943F0050
S11300300C943F000C943F000C943F000C943F0040
S11300400C943F000C943F000C943F000C943F0030
S11300500C943F0011241FBECFE5D4E0DEBFCDBF1A
S113006010E0A0E6B0E0E2EEF0E002C005900D92F0
S1130070AA36B107D9F70E9441000C946F000C9482
S11300800000CF93DF93CDB7DEB72A970FB6F8946D
S1130090DEBF0FBECDBF8FEF84BB8AE0E0E6F0E0A9
S11300A0DE01119601900D928A95E1F780E090E0CF
S11300B012C0E1E0F0E0EC0FFD1FE80FF91F208112
S11300C025BB2FE33DE043E0215030404040E1F7C1
S11300D000C0000001968A30910558F3E7CFF894E8
S10500E0FFCF4C
S10D00E23F065B4F666D7D077F6FDC
S9030000FC
