:100000000C942A000C9434000C9434000C943400AA
:100010000C9434000C9434000C9434000C94340090
:100020000C9434000C9434000C9434000C94340080
:100030000C9434000C9434000C9434000C94340070
:100040000C9434000C9434000C9434000C94340060
:100050000C94340011241FBECFE5D4E0DEBFCDBF29
:100060000E9436000C9446000C9400008AB38E7FE8
:100070008ABB8AB382608ABBC89B04C08BB3826090
:100080008BBBFACF8BB38D7F8BBBF6CFF894FFCFB2
:00000001FF
