:100000000C942A000C943F000C943F000C943F0089
:100010000C943F000C943F000C943F000C943F0064
:100020000C943F000C943F000C943F000C943F0054
:100030000C943F000C943F000C943F000C943F0044
:100040000C943F000C943F000C943F000C943F0034
:100050000C943F0011241FBECFE5D4E0DEBFCDBF1E
:1000600010E0A0E6B0E0E8E4F1E002C005900D92F7
:10007000A237B107D9F70E9483000C94A2000C9418
:10008000000082BB85B38E7F85BB85B38D7F85BB2A
:1000900085B3846085BB83EC99E00197F1F700C0DC
:1000A000000085B38B7F85BB089582BB85B38160DB
:1000B00085BB85B38D7F85BB85B3846085BB83ECB1
:1000C00099E00197F1F700C0000085B38B7F85BBF5
:1000D0000895CF93DF93EC0103C00E945500219651
:1000E00088818111FACFDF91CF91089588E30E9432
:1000F000410086E00E9441008CE00E94410081E0C6
:100100000E94410008958FEF81BB84B3876084BB58
:100110000E94760080E80E94410080E690E00E9404
:10012000690080EC0E94410089E690E00E9469002D
:100130002FE38DE093E0215080409040E1F700C034
:080140000000E8CFF894FFCFA6
:10014800454D4245444445440053797374656D7385
:020158000000A5
:00000001FF
