:100000000C942A000C943C000C943C000C943C0092
:100010000C943C000C943C000C943C000C943C0070
:100020000C943C000C943C000C943C000C943C0060
:100030000C943C000C943C000C943C000C943C0050
:100040000C943C000C943C000C943C000C943C0040
:100050000C943C0011241FBECFE5D4E0DEBFCDBF21
:1000600020E0A0E6B0E001C01D92A136B207E1F7A2
:100070000E9442000C9465000C940000779BFECF18
:100080008FB1089587B38F7487BB87B3806487BBB4
:1000900084B3816084BB85B38E7F85BB8DB1806462
:1000A0008DB98DB18F7E8DB90E943E008093600026
:1000B000813619F485B3816085BB809160008236FA
:0E00C00099F785B38E7F85BBEFCFF894FFCF05
:00000001FF
