S026000041546D65676131365F4144432D506F74656E74696F6D657465725F4C43442E7372656373
S11300000C942A000C9447000C9447000C9447006D
S11300100C9447000C9447000C9447000C94470040
S11300200C9447000C9447000C9447000C94470030
S11300300C9447000C9447000C94C7000C944700A0
S11300400C9447000C9447000C9447000C94470010
S11300500C94470011241FBECFE5D4E0DEBFCDBF12
S113006010E0A0E6B0E0E8E4F2E002C005900D92F2
S1130070AA36B107D9F720E0AAE6B0E001C01D9284
S1130080AC36B207E1F70E948B000C9422010C9469
S1130090000082BB85B38E7F85BB85B38D7F85BB16
S11300A085B3846085BB83EC99E00197F1F700C0C8
S11300B0000085B38B7F85BB089582BB85B38160C7
S11300C085BB85B38D7F85BB85B3846085BB83EC9D
S11300D099E00197F1F700C0000085B38B7F85BBE1
S11300E00895CF93DF93EC0103C00E945D00219635
S11300F088818111FACFDF91CF91089588E30E941E
S1130100490086E00E9449008CE00E94490081E099
S11301100E9449000895CF93DF9300D000D01F922E
S1130120CDB7DEB7789417B886B1886886B986B13A
S1130130866086B986B18E7F86B98FEF81BB84B322
S1130140876084BB0E947E0086B1806486B98091FA
S11301506A0090916B004AE050E0BE016F5F7F4FF0
S11301600E94E20080E80E94490080E690E00E943C
S1130170710080EC0E944900CE0101960E9471003A
S113018087EA91E60197F1F700C00000DDCF1F92E6
S11301900F920FB60F9211242F938F939F9385B1D3
S11301A090E0982F882724B1820F911D90936B00C3
S11301B080936A009F918F912F910F900FBE0F90A3
S11301C01F9018954532510520F4423010F00C94DC
S11301D0ED00FB011082CB010895BB274A3031F4B6
S11301E0992322F4BDE2909581959F4F0C94F900D8
S11301F0BB27FB015527AA27880F991FAA1FA417FD
S113020010F0A41B83955051B9F7A05DAA3308F0F0
S1130210A95DA193009779F7B111B1931192CB0124
S11302200C941201DC01FC01672F71917723E1F733
S1130230329704C07C916D9370836291AE17BF07AF
S10B0240C8F30895F894FFCF00
S10D02484144432056616C756500C3
S9030000FC
