:100000000C942A000C9434000C9434000C943400AA
:100010000C9434000C9434000C9459000C9434006B
:100020000C9434000C9434000C9434000C94340080
:100030000C9434000C9434000C9434000C94340070
:100040000C9434000C9434000C9434000C94340060
:100050000C94340011241FBECFE5D4E0DEBFCDBF29
:100060000E9436000C9471000C940000789489B7BB
:10007000806189BF8FB58C7F8FBD8EB58F7E8EBD21
:100080008EB588608EBD8FB580648FBD8FB58F773C
:100090008FBD8EB585608EBD8EB58D7F8EBD1DBC2E
:1000A0001CBC89E09DE39BBD8ABD81B3806281BB9E
:1000B000FFCF1F920F920FB60F9211248F939F9331
:1000C00092B380E2892782BB1DBC1CBC89E09DE302
:1000D0009BBD8ABD9F918F910F900FBE0F901F9077
:0600E0001895F894FFCF13
:00000001FF
